:2000000000802020BD010000C9010000C901000000000000000000000000000000000000CE
:20002000000000000000000000000000C90100000000000000000000C9010000C901000062
:20004000C9010000C9010000C9010000C9010000C9010000C9010000C9010000C901000050
:2000600000000000C9010000C90100000000000000000000C9010000C9010000C90100008E
:20008000C9010000C9010000C9010000C9010000C9010000C90100000000000000000000A4
:2000A000C9010000C90100000000000000000000C901000000000000C9010000C90100004E
:2000C0000D48002101600D48011F0A680323DB4313400B6041680122914341604168120262
:2000E00091434160016830229143016001680F22914301607047C04608030B4004010B4069
:200100000748812101604160416581658160C1608164016503480449016001637047C046F9
:2001200078804240A0320A4000E0D10180B5064806494160064A51600649016011601020B2
:2001400000F02AF880BDC04600080A40030000B100280A400100002600F028F804488121AD
:20016000016001204003034908640860FEE7C0467880424090320A40064880F3088800BF19
:2001800000BF00F01DF80020FFF7E6FF012000F019F8C0460080202082B001900199881EB5
:2001A000001F00BFFCD2009002B0704780B5FFF7BDFFFFF7A5FFFFF783FF80BDDCE77047EA
:1001C0000120704700BFFEE7FEE7000000000000CE
:00000001FF